:100000000C94E0000C9408010C9408010C94080175
:100010000C9408010C9408010C9408010C9408013C
:100020000C9408010C9408010C9408010C9408012C
:100030000C9408010C9408010C9408010C9408011C
:100040000C9404030C9408010C94DA030C94B4038C
:100050000C9408010C9408010C9408010C940801FC
:100060000C9408010C94080100407A10F35A00A087
:10007000724E18090010A5D4E80000E87648170071
:1000800000E40B54020000CA9A3B000000E1F505B1
:10009000000080969800000040420F000000A086FB
:1000A00001000000102700000000E803000000002D
:1000B0006400000000000A000000000001000000D1
:1000C00000002C76D888DC674F0823DFC1DFAE59EB
:1000D000E1B1B796E5E3E453C63AE651997696E87E
:1000E000E6C28426EB898C9B62ED407C6FFCEFBC02
:1000F0009C9F40F2BAA56FA5F490055A2AF75C932D
:100100006B6CF9676DC11BFCE0E40D47FEF520E662
:10011000B500D0ED902E0300943577050080841E45
:10012000080000204E0A000000C80C333333330FA0
:10013000986E12831141EF8D2114893BE65516CF3D
:10014000FEE6DB18D1844B381BF77C1D901DA4BB49
:10015000E424203284725E228100C9F124ECA1E5FE
:100160003D2700000000240027002A0000000000B6
:10017000250028002B000000000023002600290095
:10018000040404040404040402020202020203033D
:100190000303030301020408102040800102040845
:1001A00010200102040810200000000800020100D5
:1001B000000304070000000000000000440E340E9D
:1001C00011241FBECFEFD8E0DEBFCDBF22E0A6ECEA
:1001D000B1E001C01D92A03DB207E1F711E0A0E03F
:1001E000B1E0EAE0FCE202C005900D92A63CB10746
:1001F000D9F710E0CFEDD0E004C02197FE010E94B6
:10020000E613CE3DD107C9F70E94FA070C94F81502
:100210000C9400002FB7F8946091E7017091E80109
:100220008091E9019091EA012FBF08950895CF923E
:10023000DF92EF92FF920F931F93CF93DF936C01A6
:100240007A018B01C0E0D0E0CE15DF0589F0D8013E
:100250006D918D01D601ED91FC910190F081E02D21
:10026000C6010995892B11F47E0102C02196ECCFBD
:10027000C701DF91CF911F910F91FF90EF90DF9019
:10028000CF900895FC01538D448D252F30E0842FAD
:1002900090E0821B930B541710F0CF9608950197AE
:1002A0000895FC01918D828D981761F0828DDF0198
:1002B000A80FB11D5D968C91928D9F5F9F73928F59
:1002C00090E008958FEF9FEF0895FC01918D828D4E
:1002D000981731F0828DE80FF11D858D90E008951B
:1002E0008FEF9FEF0895FC01918D228D892F90E073
:1002F000805C9F4F821B91098F73992708958FEE21
:1003000091E00E94730121E0892B09F420E0822F03
:100310000895FC01848DDF01A80FB11DA35ABF4FC2
:100320002C91848D90E001968F739927848FA689F4
:10033000B7892C93A089B1898C9180648C93938D1B
:10034000848D981306C00288F389E02D80818F7D0B
:1003500080830895EF92FF920F931F93CF93DF93C3
:10036000EC0181E0888F9B8D8C8D981305C0E88906
:10037000F989808185FD24C0F62E0B8D10E00F5F7A
:100380001F4F0F731127E02E8C8DE8120CC00FB693
:1003900007FCFACFE889F989808185FFF5CFCE0186
:1003A0000E948901F1CF8B8DFE01E80FF11DE35A08
:1003B000FF4FF0820B8FEA89FB898081806207C042
:1003C000EE89FF896083E889F98980818064808370
:1003D00081E090E0DF91CF911F910F91FF90EF901E
:1003E0000895CF93DF93EC01888D8823C9F0EA89C3
:1003F000FB89808185FD05C0A889B9898C9186FD1E
:100400000FC00FB607FCF5CF808185FFF2CFA8891A
:10041000B9898C9185FFEDCFCE010E948901E7CF8C
:10042000DF91CF91089580E090E0892B29F00E9420
:100430007F0181110C9400000895089580E090E000
:1004400008950E94E315FC01808191810C94811430
:100450000F931F93CF93DF938C01EB01FC018081FD
:1004600091810097B1F0688179816115710579F00A
:10047000428153812C813D814217530740F00E94F5
:10048000F1158C819D81F8019583848313C00E94AE
:10049000811488819981F801918380838A819B816D
:1004A000938382838C819D819583848319821882B2
:1004B0001B821A821D821C82DF91CF911F910F91A6
:1004C0000895EF92FF920F931F93CF93DF93EC0168
:1004D0007B018A0188819981009729F02A813B81DB
:1004E00024173507F8F4B8016F5F7F4F0E94191584
:1004F000009759F0998388831B830A832C813D815F
:10050000232B81F4FC0110820DC088819981009712
:1005100011F00E948114198218821D821C821B8294
:100520001A8207C01D830C83B701888199810E94BC
:10053000F115CE01DF91CF911F910F91FF90EF90B8
:100540000895CF93DF93EC0160E08E810E94B606A0
:1005500061E08E810E94B60660E08E810E94B60640
:100560008BE891E00197F1F7DF91CF910895EF9239
:10057000FF921F93CF93DF93182F7B01C0E0D0E051
:10058000CE15DF05B4F461E0812F0E94B60661E06C
:1005900070E080E090E00E94C00760E0812F0E9440
:1005A000B60661E070E080E090E00E94C00721960E
:1005B000E7CFDF91CF911F91FF90EF9008953FB764
:1005C000F8948091EB019091EC01A091ED01B09134
:1005D000EE0126B5A89B05C02F3F19F00196A11D7D
:1005E000B11D3FBFBA2FA92F982F8827820F911DC9
:1005F000A11DB11DBC01CD0142E0660F771F881F10
:10060000991F4A95D1F708951F920F920FB60F9236
:1006100011242F933F938F939F93AF93BF93809118
:10062000E7019091E801A091E901B091EA013091D0
:10063000E60123E0230F2D3720F40196A11DB11D03
:1006400005C026E8230F0296A11DB11D2093E601E7
:100650008093E7019093E801A093E901B093EA0148
:100660008091EB019091EC01A091ED01B091EE0130
:100670000196A11DB11D8093EB019093EC01A09315
:10068000ED01B093EE01BF91AF919F918F913F919A
:100690002F910F900FBE0F901F901895CF93DF935F
:1006A000EC016115710559F0FB0101900020E9F79B
:1006B0003197AF01461B570B0E9461020CC0888125
:1006C0009981009711F00E948114198218821D826D
:1006D0001C821B821A82CE01DF91CF910895EF9286
:1006E000FF920F931F93CF93DF93CDB7DEB7A19700
:1006F0000FB6F894DEBF0FBECDBF7C01CB01BA01AF
:10070000F70111821082138212821582148242E054
:10071000420F8E010F5F1F4F0E94CB0EBC01C7011D
:100720000E944E03A1960FB6F894DEBF0FBECDBF58
:10073000DF91CF911F910F91FF90EF900895FC01F1
:100740001182108213821282158214826115710542
:1007500051F0FB0101900020E9F73197AF01461BF2
:10076000570B0C94610208951F920F920FB60F92CF
:1007700011242F933F934F935F936F937F938F93A6
:100780009F93AF93BF93EF93FF938FEE91E00E94FF
:100790008901FF91EF91BF91AF919F918F917F91CF
:1007A0006F915F914F913F912F910F900FBE0F90DE
:1007B0001F9018951F920F920FB60F9211242F932E
:1007C0008F939F93EF93FF93E091FF01F0910002CD
:1007D0008081E0910502F091060282FD12C09081B5
:1007E000809108028F5F8F7320910902821751F068
:1007F000E0910802F0E0E151FE4F958F80930802EE
:1008000001C08081FF91EF919F918F912F910F9067
:100810000FBE0F901F901895CF92DF92EF92FF922C
:100820000F931F93CF93DF937C016C0187E0C80E79
:10083000D11CC0E0D0E0062F10E0B8010C2E02C0A1
:10084000759567950A94E2F76170F60181916F01E1
:100850000E94B6062196C430D10579F7C701DF9111
:10086000CF911F910F91FF90EF90DF90CF900C945C
:10087000A102CF92DF92EF92FF920F931F93CF933B
:10088000DF93EC01F62E642F8C810E94B6068D81D9
:100890008F3F19F060E00E94B6068F850F2D10E0A3
:1008A00084FF25C06E0187E0C80ED11CE12CF12C1D
:1008B000B8010E2C02C0759567950A94E2F7617035
:1008C000F60181916F010E94B606FFEFEF1AFF0A51
:1008D00088E0E816F10461F7CE01DF91CF911F9116
:1008E0000F91FF90EF90DF90CF900C94A102B80190
:1008F00084E0759567958A95E1F7CE010E940C0416
:100900006F2DCE01DF91CF911F910F91FF90EF904E
:10091000DF90CF900C940C0441E00E94390481E0F8
:1009200090E0089540E00C94390461E00E94920444
:100930008BE39FE10197F1F7089584EB92E00E9429
:1009400095048EE291E00E941F0660E089E00E941B
:100950000A0687E391E00E941F06809104019091AE
:1009600005010E9421068AE391E00E941F0661E0D2
:1009700080E00E940A068DE391E00C941F06E0914E
:10098000B402F091B5020190F081E02D682F84EB64
:1009900092E00994833081F028F4813099F082301C
:1009A000A1F008958730A9F08830B9F08430D1F4EF
:1009B000809180008F7D03C0809180008F7780932D
:1009C0008000089584B58F7702C084B58F7D84BD83
:1009D00008958091B0008F7703C08091B0008F7D23
:1009E0008093B0000895009769F0FC010190002009
:1009F000E9F73197AF01481B590BBC0184EB92E03A
:100A00000C94170180E090E008958F929F92AF922E
:100A1000BF920F931F93CF93DF93CDB7DEB7A1970C
:100A20000FB6F894DEBF0FBECDBF19A2423008F456
:100A30004AE08E010F5D1F4F842E912CA12CB12C0A
:100A4000A50194010E94C413E62FB901CA01015007
:100A50001109EA3014F4E05D01C0E95CD801EC93BF
:100A6000232B242B252B61F7C8010E94F304A196A8
:100A70000FB6F894DEBF0FBECDBFDF91CF911F91AF
:100A80000F91BF90AF909F908F9008958F929F92FB
:100A9000AF92BF92CF92DF92EF92FF92CF93DF930C
:100AA0006B017C019B01AC010E94BF13882319F0EC
:100AB00089EB91E027C046015701E894B7F82FEF82
:100AC0003FEF4FE75FE7C501B4010E94BF138111FB
:100AD0000DC02FEF3FEF4FE75FE7C501B4010E9464
:100AE000511118161CF48DEB91E00CC02FEF3FEF65
:100AF0004FE75FE4C701B6010E94BA13181674F4F9
:100B000081EC91E0DF91CF91FF90EF90DF90CF905B
:100B1000BF90AF909F908F900C94F3042FEF3FEF16
:100B20004FE75FECC701B6010E94511187FDE8CF86
:100B300020E030E0A901C701B6010E94511187FFF2
:100B400009C08DE20E94BF04EC01F7FAF094F7F8B7
:100B5000F09402C0C0E0D0E02AE037ED43EA5BE366
:100B6000C701B6010E94AD124B015C010E948B13BC
:100B70006B017C010E9456119B01AC01C501B401BF
:100B80000E94AC124B015C014AE0C701B6010E9411
:100B90000505C80FD91F8EE20E94BF04C80FD91FD8
:100BA00020E030E040E251E4C501B4010E94B711F9
:100BB0004B015C010E948B136B01E12CF12C4AE08C
:100BC000C701B6010E940505C80FD91FC701B601AC
:100BD0000E9456119B01AC01C501B4010E94AC12E8
:100BE00020E030E040E251E40E94B7110E948B13F4
:100BF00080E090E04AE00E9405058C0F9D1FDF9188
:100C0000CF91FF90EF90DF90CF90BF90AF909F90EB
:100C10008F900895643008F063E09091C7026917DF
:100C200010F06FEF690FE62FF0E0EC54FD4F948960
:100C3000682F690F606884EB92E00C9492040C9426
:100C4000F304CF92DF92EF92FF92CF93DF936C0188
:100C5000990FEE08FF08F7FE17C08DE20E94BF044F
:100C6000EC0166277727CB016C197D098E099F0956
:100C70004AE00E9405058C0F9D1FDF91CF91FF90E8
:100C8000EF90DF90CF9008954AE0C701B601DF9161
:100C9000CF91FF90EF90DF90CF900C940505FC0171
:100CA000448155816081718184EB92E00C9417013D
:100CB000DF92EF92FF920F931F93CF93DF937C010C
:100CC0008B0169E371E00E949F03D8011496CD91D6
:100CD000DC9115972097C1F0C330D10510F0C3E027
:100CE000D0E0D801ED91FC911197EC0FFD1FD08061
:100CF00010826D917C91C7010E944E03F8018081A2
:100D00009181C80FD91FD882C701DF91CF911F9160
:100D10000F91FF90EF90DF900895CF93DF93282FEE
:100D200030E0F901E855FE4F8491F901EC56FE4F91
:100D3000D491F901E058FE4FC491CC2391F0811178
:100D40000E94CA04EC2FF0E0EE0FFF1FEA58FE4F9E
:100D5000A591B491EC91ED2381E090E021F480E045
:100D600002C080E090E0DF91CF9108951F93CF9370
:100D7000DF93282F30E0F901E855FE4F8491F90107
:100D8000EC56FE4FD491F901E058FE4FC491CC23AC
:100D9000C9F0162F81110E94CA04EC2FF0E0EE0F6B
:100DA000FF1FE459FE4FA591B4918FB7F89411112C
:100DB00005C09C91ED2FE095E92302C0EC91ED2B4D
:100DC000EC938FBFDF91CF911F910895CF93DF9365
:100DD00090E0FC01EC56FE4F2491FC01E058FE4FE0
:100DE0008491882361F190E0880F991FFC01EE59EE
:100DF000FE4FC591D491FC01E459FE4FA591B491E9
:100E0000611109C09FB7F894888120958223888357
:100E1000EC912E230BC0623061F49FB7F8943881B7
:100E2000822F809583238883EC912E2B2C939FBF58
:100E300006C08FB7F894E8812E2B28838FBFDF91EF
:100E4000CF910895EF92FF920F931F93CF93DF936B
:100E5000EC01623018F08F8588608F876B8B1C8A5D
:100E600080E48D8B80E18E8B80E58F8B61E08C81BF
:100E70000E94E6068D818F3F19F061E00E94E60630
:100E800061E08E810E94E6067E0187E0E80EF11C9B
:100E900000E010E08F8584FD03C084E090E002C094
:100EA00088E090E0081719074CF461E0F7018191A0
:100EB0007F010E94E6060F5F1F4FECCF8BE39DE0A2
:100EC0000197F1F760E08C810E94B60660E08E81A8
:100ED0000E94B6068D818F3F19F060E00E94B60631
:100EE0006F8564FD1DC063E0CE010E940C040BE41D
:100EF00016E4C8010197F1F763E0CE010E940C04EB
:100F0000C8010197F1F763E0CE010E940C0483E56C
:100F100092E00197F1F762E0CE010E940C0416C046
:100F20006062CE010E9492048BE496E40197F1F78F
:100F30006F856062CE010E94920483E592E0019782
:100F4000F1F76F856062CE010E9492046F85606246
:100F5000CE010E94920484E0888B6CE0CE010E9456
:100F60009204CE010E94950482E0898B66E0CE0156
:100F7000DF91CF911F910F91FF90EF900C9492040D
:100F80008F929F92AF92BF92CF92DF92EF92FF9299
:100F90006B017C010E94DF024B015C01C114D10492
:100FA000E104F104F1F00E94DF02DC01CB018819B9
:100FB0009909AA09BB09883E9340A105B10570F3C0
:100FC00021E0C21AD108E108F10888EE880E83E01A
:100FD000981EA11CB11CC114D104E104F10419F73D
:100FE000DDCFFF90EF90DF90CF90BF90AF909F90BC
:100FF0008F900895CF93DF9300D000D000D0CDB76D
:10100000DEB7789484B5826084BD84B5816084BD88
:1010100085B5826085BD85B5816085BD80916E0096
:10102000816080936E0010928100809181008260C7
:101030008093810080918100816080938100809104
:1010400080008160809380008091B10084608093F3
:10105000B1008091B00081608093B00080917A00EF
:10106000846080937A0080917A00826080937A0015
:1010700080917A00816080937A0080917A00806804
:1010800080937A001092C10061E08DE00E94E60634
:1010900060E086E00E94E60660E084E00E94E606EA
:1010A00060E085E00E94E606E091FF01F091000219
:1010B00082E08083E091FB01F091FC011082E091DD
:1010C000FD01F091FE018FEC808310920702E09108
:1010D0000302F091040286E08083E0910102F09126
:1010E0000202808180618083E0910102F09102021E
:1010F000808188608083E0910102F091020280810A
:1011000080688083E0910102F091020280818F7DEE
:10111000808362E084EB92E00E9422078BE491E0FE
:101120000E941F0661E080E00E940A068CE591E0C3
:101130000E941F0668EE73E080E090E00E94C00706
:101140000E949D041092DF011092DE0122242A9455
:10115000322CC12C9CE7D92E92E9E92E98E4F92E85
:1011600023E0A22EB12C86E00E948D068C01909384
:10117000E5018093E40184E00E948D069093E301F1
:101180008093E20185E00E948D069093E1018093B7
:10119000E0010130110509F0CBC08091DE01909192
:1011A000DF01009709F0B5C082E090E09093DF0185
:1011B0008093DE0164EF71E080E090E00E94C00760
:1011C000309203012092020130920101209200012D
:1011D000C092B002D092B102E092B202F092B30299
:1011E000C092AC02D092AD02E092AE02F092AF0299
:1011F0001092D4011092D5011092D6011092D7010D
:101200001092CB011092CC011092CD011092CE0120
:10121000C092A802D092A902E092AA02F092AB0278
:10122000C092A402D092A502E092A602F092A70278
:101230001092CF011092C6011092DD011092DC01D4
:1012400084EB92E00E94950485E691E00E941F06DF
:1012500064E670E08DE090E00E94B70268EE73E013
:1012600080E090E00E94C00784EB92E00E94950429
:101270008BE691E00E941F0664E670E08DE090E04E
:101280000E94B70268EE73E080E090E00E94C00721
:1012900084EB92E00E94950486E791E00E941F068D
:1012A00064E670E08DE090E00E94B70268EE73E0C3
:1012B00080E090E00E94C00784EB92E00E949504D9
:1012C00087E891E00E941F0668EC70E08DE090E0F6
:1012D0000E94B70268EE73E080E090E00E94C007D1
:1012E00084EB92E00E9495040E940A016093D4016D
:1012F0007093D5018093D6019093D7010E940A0183
:101300006093CB017093CC018093CD019093CE017B
:101310000FC00297029760F41092DF011092DE0175
:1013200064EF71E080E090E00E94C0070E949D049D
:101330008091E2019091E3010197E9F48091DE014F
:101340009091DF01892BB9F48091040190910501FE
:101350000196883E23E0920714F087EE93E0909385
:101360000501809304010E949D0466E970E080E01D
:1013700090E00E94C0072091E0013091E10121300E
:101380003105F9F48091DE019091DF01892BC9F4D8
:1013900080910401909105010197181619062CF40B
:1013A000909305018093040104C0309305012093BC
:1013B00004010E949D0466E970E080E090E00E94D4
:1013C000C0078091DE019091DF01039709F042C0D0
:1013D0000091DC011091DD0160E080E00E940A06CE
:1013E00086E991E00E941F0660E08FE00E940A06F5
:1013F000C8010E94210661E080E00E940A0684EA9A
:1014000091E00E941F0661E087E00E940A06013019
:10141000110569F420E030E04AE754E46091A80245
:101420007091A9028091AA029091AB020FC0023084
:10143000110581F420E030E04AE754E46091A40211
:101440007091A5028091A6029091A7020E941913A3
:101450000E9446058091DE019091DF01029709F01C
:1014600000C482E00E948D068C019093DB01809382
:10147000DA0183E00E948D064C019093D90180939C
:10148000D8010130110509F08BC0009102011091C3
:10149000030117FF0FC010920301109202010E9476
:1014A0000A016093D4017093D5018093D601909383
:1014B000D70178C00E940A014090D4015090D50114
:1014C0006090D6017090D701641975098609970953
:1014D0006093D0017093D1018093D2019093D30196
:1014E0006D3D25E072078105910508F45BC02091F0
:1014F000CF01211157C00E9456112B013C0160936E
:10150000B0027093B1028093B2029093B3029B0138
:10151000AC016091A8027091A9028091AA029091F9
:10152000AB020E94BA13181644F44092A8025092DB
:10153000A9026092AA027092AB0281E08093CF016F
:101540000F5F1F4F109303010093020162E370E0ED
:101550008DE090E00E94B7020E940A016093D401DE
:101560007093D5018093D6019093D70184EB92E0DC
:101570000E949504809104019091050108171907B4
:101580008CF081E090E09093DD018093DC01B092DB
:10159000DF01A092DE0184EB92E00E94950402C07C
:1015A0001092CF018A94892809F08BC00091000124
:1015B0001091010117FF0FC010920101109200015C
:1015C0000E940A016093CB017093CC018093CD01FE
:1015D0009093CE0178C00E940A014090CB015090B8
:1015E000CC016090CD017090CE0164197509860917
:1015F00097096093C7017093C8018093C9019093C4
:10160000CA016D3D25E072078105910508F45BC0B4
:101610002091C601211157C00E9456112B013C0197
:101620006093AC027093AD028093AE029093AF02D0
:101630009B01AC016091A4027091A5028091A60269
:101640009091A7020E94BA13181644F44092A40283
:101650005092A5026092A6027092A70281E0809348
:10166000C6010F5F1F4F109301010093000162E359
:1016700070E08DE090E00E94B7020E940A01609342
:10168000CB017093CC018093CD019093CE0184EB7C
:1016900092E00E9495048091040190910501081741
:1016A00019078CF082E090E09093DD018093DC01DB
:1016B000B092DF01A092DE0184EB92E00E949504DB
:1016C00002C01092C6018091020190910301892B02
:1016D00041F460E080E00E940A068CEA91E00E94FA
:1016E0001F060091020110910301C801019709979B
:1016F00058F460E080E00E940A0684EB91E00E94CA
:101700001F0660E082E00FC0C8010A978A35910584
:1017100088F460E080E00E940A0685EB91E00E9478
:101720001F0660E081E00E940A068091020190910C
:1017300003010BC0C801845691098438934038F4E2
:1017400060E080E00E940A06C8010E9421068091A4
:10175000000190910101892B41F461E080E00E9439
:101760000A068CEA91E00E941F0600910001109188
:101770000101C8010197099758F461E080E00E94D7
:101780000A0684EB91E00E941F0661E082E00FC030
:10179000C8010A978A35910588F461E080E00E94CB
:1017A0000A0685EB91E00E941F0661E081E00E943D
:1017B0000A0680910001909101010BC0C801845676
:1017C00091098438934038F461E080E00E940A0671
:1017D000C8010E9421068091020190910301181610
:1017E00019060CF08AC08091CF01811186C040900B
:1017F000B0025090B1026090B2027090B30220E04B
:1018000030E44CE156E4C301B2010E94511187FF5C
:1018100003C060E086E016C020E030E44CE156E40E
:10182000C301B2010E94BA1387FD1EC020E030E55B
:1018300043EC57E4C301B2010E94511187FF14C069
:1018400060E085E00E940A0620E030E04AE754E4C8
:101850006091B0027091B1028091B2029091B30296
:101860000E9419130E9446054090B0025090B102A8
:101870006090B2027090B30220E030E543EC57E490
:10188000C301B2010E94BA1387FD37C020E030E0E7
:101890004AE754E4C301B2010E941913AB01BC0131
:1018A00022E0CE0101960E946F03BE016F5F7F4F61
:1018B0008EE992E00E942802CE0101960E94230246
:1018C0006EE972E0CE0101960E945806BE016F5F7C
:1018D0007F4F8EE992E00E942802CE0101960E947D
:1018E000230260E085E00E940A068EE992E00E94F1
:1018F0004F0687EB91E00E941F06809100019091B6
:101900000101181619060CF08AC08091C6018111D8
:1019100086C04090AC025090AD026090AE027090D4
:10192000AF0220E030E44CE156E4C301B2010E9472
:10193000511187FF03C061E086E016C020E030E46B
:101940004CE156E4C301B2010E94BA1387FD1EC0E8
:1019500020E030E543EC57E4C301B2010E9451118D
:1019600087FF14C061E085E00E940A0620E030E0B5
:101970004AE754E46091AC027091AD028091AE02EE
:101980009091AF020E9419130E9446054090AC024C
:101990005090AD026090AE027090AF0220E030E552
:1019A00043EC57E4C301B2010E94BA1387FD37C06C
:1019B00020E030E04AE754E4C301B2010E94191369
:1019C000AB01BC0122E0CE0101960E946F03BE0173
:1019D0006F5F7F4F88E992E00E942802CE01019656
:1019E0000E94230268E972E0CE0101960E94580627
:1019F000BE016F5F7F4F88E992E00E942802CE010E
:101A000001960E94230261E085E00E940A0688E9AF
:101A100092E00E944F0687EB91E00E941F068091A2
:101A200002019091030102970CF48AC08091CF01CA
:101A3000811186C04090A8025090A9026090AA022D
:101A40007090AB0220E030E44CE156E4C301B201F7
:101A50000E94511187FF03C060E08CE016C020E0B7
:101A600030E44CE156E4C301B2010E94BA1387FD91
:101A70001EC020E030E543EC57E4C301B2010E94F0
:101A8000511187FF14C060E08BE00E940A0620E03D
:101A900030E04AE754E46091A8027091A902809175
:101AA000AA029091AB020E9419130E944605409031
:101AB000A8025090A9026090AA027090AB0220E0A8
:101AC00030E543EC57E4C301B2010E94BA1387FD2D
:101AD00037C020E030E04AE754E4C301B2010E947D
:101AE0001913AB01BC0122E0CE0101960E946F03E5
:101AF000BE016F5F7F4F82E992E00E942802CE0113
:101B000001960E94230262E972E0CE0101960E94D2
:101B10005806BE016F5F7F4F82E992E00E94280263
:101B2000CE0101960E94230260E08BE00E940A062B
:101B300082E992E00E944F0687EB91E00E941F0627
:101B4000809100019091010102970CF48AC080916C
:101B5000C601811186C04090A4025090A5026090F9
:101B6000A6027090A70220E030E44CE156E4C301E5
:101B7000B2010E94511187FF03C061E08CE016C0E2
:101B800020E030E44CE156E4C301B2010E94BA13F4
:101B900087FD1EC020E030E543EC57E4C301B201ED
:101BA0000E94511187FF14C061E08BE00E940A0679
:101BB00020E030E04AE754E46091A4027091A5026D
:101BC0008091A6029091A7020E9419130E944605D7
:101BD0004090A4025090A5026090A6027090A702C7
:101BE00020E030E543EC57E4C301B2010E94BA1390
:101BF00087FD37C020E030E04AE754E4C301B2017A
:101C00000E941913AB01BC0122E0CE0101960E9493
:101C10006F03BE016F5F7F4F8CE892E00E94280245
:101C2000CE0101960E9423026CE872E0CE0101967B
:101C30000E945806BE016F5F7F4F8CE892E00E94C1
:101C40002802CE0101960E94230261E08BE00E94EF
:101C50000A068CE892E00E944F0687EB91E00E9412
:101C60001F060E9413027FCA8CE892E00E942302A2
:101C700082E992E00E94230288E992E00E94230216
:101C80008EE992E00C942302EFEEF1E013821282CF
:101C900088EE93E0A0E0B0E084839583A683B783C9
:101CA00080E191E09183808385EC90E09587848743
:101CB00084EC90E09787868780EC90E0918B808B16
:101CC00081EC90E0938B828B82EC90E0958B848BFF
:101CD00086EC90E0978B868B118E128E138E148E6D
:101CE000E4EBF2E01382128282E291E0918380833E
:101CF00087E084838FEF858388E0868389E087830C
:101D00008AE080878BE081878CE082871386148647
:101D100015861686178661E0CF010E94220780E0B3
:101D20009CE7A2E9B8E48093B0029093B102A0933B
:101D3000B202B093B3028093AC029093AD02A09331
:101D4000AE02B093AF028093A8029093A902A09331
:101D5000AA02B093AB028093A4029093A502A09331
:101D6000A602B093A70269E371E08EE992E00E94B7
:101D70009F0369E371E088E992E00E949F0369E3B1
:101D800071E082E992E00E949F0369E371E08CE8D0
:101D900092E00C949F03EF920F931F93CF93DF93E6
:101DA000E80147FD02C034E001C034E1E42F440FF4
:101DB000FF0BF7FF03C0F195E195F109E32E022F28
:101DC0002E2FAE010E94EB0ECE01DF91CF911F911D
:101DD0000F91EF9008954F925F926F927F929F9232
:101DE000AF92BF92CF92DF92EF92FF920F931F9329
:101DF000CF93DF93CDB7DEB729970FB6F894DEBF48
:101E00000FBECDBF6A01122FB02E2BE3201720F09A
:101E1000FF24F394F00E02C0BCE3FB2E0F2D27E04D
:101E2000AE014F5F5F4F0E947910AC018981982FFE
:101E30009970913031F0E1FC06C0E0FE06C090E2FE
:101E400005C09DE203C09BE201C090E0EE2DE07171
:101E500083FF3CC0911102C083E001C084E0811780
:101E600018F4212F281B01C020E0E1110BC0F6015E
:101E7000822F30E2882319F031938150FBCFC20EBC
:101E8000D11C20E0992329F0D6019C93F6013196CC
:101E90006F01C6010396E2FE0AC03EE4D6013C9300
:101EA00041E411964C93119712963C9306C03EE67E
:101EB000F601308341E641833283FC01322F40E258
:101EC000332309F442C041933150FACF82FF44C01A
:101ED000911102C083E001C084E0811718F4212F22
:101EE000281B01C020E0E1110BC0F601822F30E277
:101EF000882319F031938150FBCFC20ED11C20E012
:101F0000992329F0D6019C93F60131966F01C60101
:101F10000396E2FE0BC039E4D6013C933EE41196F1
:101F20003C93119736E412963C9307C039E6F601CC
:101F300030833EE6318336E63283FC01322F40E2C5
:101F4000332319F041933150FBCFFC01E20FF11D17
:101F500010828EEF9FEFB7C0F1E0911101C0F0E069
:101F60006F2F70E01416150624F49A012F5F3F4F6F
:101F700002C021E030E0260F371FBB2029F06B2D77
:101F800070E06F5F7F4F02C060E070E0260F371F88
:101F9000612F70E0261737071CF4121B212F01C098
:101FA00020E03E2D387159F4D601322F60E2332300
:101FB00019F06D933150FBCFC20ED11C20E0FF23EE
:101FC00031F0D6019C93B6016F5F7F4F6B01E11139
:101FD0000BC0F601922F30E3992319F03193915001
:101FE000FBCFC20ED11C20E09F2D940F3A81782F99
:101FF0007071A72E84FF03C0313309F49150191674
:1020000024F4993018F098E001C091E0E42F852F76
:1020100057FF02C0E0E080E06E2F782FE0E0F0E0B4
:10202000AEE29A2E3A01691A71082A01461A570A35
:102030000B2D10E01195019511096F3F8FEF780777
:1020400029F4D6019C92C60101966C0146175707E8
:1020500084F0661677066CF47F01E40CF51CA1E0B1
:10206000B0E0AC0FBD1FEA0EFB1ED7011196BC906D
:1020700002C090E3B92E615071093196C6010196F4
:102080007C016017710724F0D601BC926C01D5CF9A
:102090006417750741F4363320F4353321F4A11069
:1020A00002C081E3B82EF601B082F701822F90E2E0
:1020B000882319F091938150FBCFF701E20FF11DB6
:1020C000108280E090E029960FB6F894DEBF0FBE34
:1020D000CDBFDF91CF911F910F91FF90EF90DF90D7
:1020E000CF90BF90AF909F907F906F905F904F90F8
:1020F0000895283008F027E03327DA01990F311DC1
:1021000087FD916000966105710539F432602E5F9C
:102110003D9330E32A95E1F708959F3F30F08038F2
:102120007105610509F03C5F3C5F3D93913008F01B
:102130008068911DDF93CF931F930F93FF92EF92CF
:10214000192F987F9695E92F96959695E90FFF2779
:10215000EE53FF4F99273327EE24FF24A701E70111
:1021600005900894079428F4360FE71EF81E491FBF
:10217000511D660F771F881F991F0694A1F70590C0
:10218000079428F4E70EF81E491F561FC11D770F4C
:10219000881F991F661F0694A1F70590079428F4DD
:1021A000F80E491F561FC71FD11D880F991F661FA4
:1021B000771F0694A1F70590079420F4490F561F46
:1021C000C71FD81F990F661F771F881F0694A9F78E
:1021D00084911095177041F0D695C79557954795FE
:1021E000F794E7941A95C1F7E8E6F0E06894159043
:1021F000159135916591959105907FE27395E11860
:10220000F10A430B560BC90BD009C0F7E10CF11EC4
:10221000431F561FC91FD01D7EF4703311F48A95D9
:10222000E6CFE894015030F0080F0AF400270217B7
:1022300008F4202F2395022F7A3328F079E37D9339
:102240002A95E9F710C07D932A9589F6069497950B
:102250006795379517951794E118F10A430B560BBC
:10226000C90BD00998F023957E9173957A3308F0C5
:1022700070E37C932013B8F77E9170617D9330F00A
:10228000839571E37D9370E32A95E1F71124EF9034
:10229000FF900F911F91CF91DF91992787FD909526
:1022A00008950E94931108F481E00895E89409C00C
:1022B00097FB3EF490958095709561957F4F8F4F79
:1022C0009F4F9923A9F0F92F96E9BB279395F6958F
:1022D000879577956795B795F111F8CFFAF4BB0F0D
:1022E00011F460FF1BC06F5F7F4F8F4F9F4F16C071
:1022F000882311F096E911C0772321F09EE8872FFB
:10230000762F05C0662371F096E8862F70E060E0B6
:102310002AF09A95660F771F881FDAF7880F96952F
:10232000879597F90895990F0008550FAA0BE0E8D3
:10233000FEEF16161706E807F907C0F01216130687
:10234000E407F50798F0621B730B840B950B39F4C7
:102350000A2661F0232B242B252B21F408950A262D
:1023600009F4A140A6958FEF811D811D08950E945B
:10237000CA110C943B120E942D1238F00E943412A4
:1023800020F0952311F00C9424120C942A1211249D
:102390000C946F120E944C1270F3959FC1F3950F2D
:1023A00050E0551F629FF001729FBB27F00DB11DD9
:1023B000639FAA27F00DB11DAA1F649F6627B00D69
:1023C000A11D661F829F2227B00DA11D621F739F52
:1023D000B00DA11D621F839FA00D611D221F749F60
:1023E0003327A00D611D231F849F600D211D822FA7
:1023F000762F6A2F11249F5750409AF0F1F08823CE
:102400004AF0EE0FFF1FBB1F661F771F881F9150FA
:102410005040A9F79E3F510580F00C9424120C9473
:102420006F125F3FE4F3983ED4F3869577956795F6
:10243000B795F795E7959F5FC1F7FE2B880F911D24
:102440009695879597F9089597F99F6780E870E0CA
:1024500060E008959FEF80EC089500240A9416161A
:10246000170618060906089500240A941216130682
:10247000140605060895092E0394000C11F4882310
:1024800052F0BB0F40F4BF2B11F460FF04C06F5F2C
:102490007F4F8F4F9F4F089557FD9058440F551F02
:1024A00059F05F3F71F04795880F97FB991F61F0D6
:1024B0009F3F79F087950895121613061406551F4D
:1024C000F2CF4695F1DF08C0161617061806991FB9
:1024D000F1CF86957105610508940895E894BB27AE
:1024E00066277727CB0197F908952F923F924F9255
:1024F0005F926F927F928F929F92AF92BF92CF9294
:10250000DF92EF92FF920F931F93CF93DF93CDB79C
:10251000DEB7CA1BDB0B0FB6F894DEBF0FBECDBF14
:1025200009942A88398848885F846E847D848C84E5
:102530009B84AA84B984C884DF80EE80FD800C81EE
:102540001B81AA81B981CE0FD11D0FB6F894DEBFD1
:102550000FBECDBFED0108955058BB27AA270E949A
:10256000C4120C943B120E942D1238F00E943412B7
:1025700020F039F49F3F19F426F40C942A120EF43B
:10258000E095E7FB0C942412E92F0E944C1258F3BB
:10259000BA17620773078407950720F079F4A6F548
:1025A0000C946E120EF4E0950B2EBA2FA02D0B0199
:1025B000B90190010C01CA01A0011124FF27591B88
:1025C00099F0593F50F4503E68F11A16F040A22F8E
:1025D000232F342F4427585FF3CF469537952795FF
:1025E000A795F0405395C9F77EF41F16BA0B620BFE
:1025F000730B840BBAF09150A1F0FF0FBB1F661F45
:10260000771F881FC2F70EC0BA0F621F731F841F87
:1026100048F4879577956795B795F7959E3F08F0AD
:10262000B0CF9395880F08F09927EE0F979587956F
:1026300008950E942D130C943B120E94341258F0FE
:102640000E942D1240F029F45F3F29F00C942412CF
:1026500051110C946F120C942A120E944C1268F3C0
:102660009923B1F3552391F3951B550BBB27AA274B
:1026700062177307840738F09F5F5F4F220F331F85
:10268000441FAA1FA9F335D00E2E3AF0E0E832D04D
:1026900091505040E695001CCAF72BD0FE2F29D050
:1026A000660F771F881FBB1F261737074807AB0722
:1026B000B0E809F0BB0B802DBF01FF2793585F4F97
:1026C0003AF09E3F510578F00C9424120C946F124E
:1026D0005F3FE4F3983ED4F3869577956795B79579
:1026E000F7959F5FC9F7880F911D9695879597F984
:1026F0000895E1E0660F771F881FBB1F62177307FD
:102700008407BA0720F0621B730B840BBA0BEE1F11
:1027100088F7E09508950E94541288F09F5798F02A
:10272000B92F9927B751B0F0E1F0660F771F881FD6
:10273000991F1AF0BA95C9F714C0B13091F00E94F0
:102740006E12B1E008950C946E12672F782F8827CF
:10275000B85F39F0B93FCCF3869577956795B39517
:10276000D9F73EF490958095709561957F4F8F4F86
:102770009F4F08950E94931108F48FEF08950E94CF
:102780009311880B990B0895A1E21A2EAA1BBB1B6B
:10279000FD010DC0AA1FBB1FEE1FFF1FA217B3072D
:1027A000E407F50720F0A21BB30BE40BF50B661F43
:1027B000771F881F991F1A9469F760957095809507
:1027C00090959B01AC01BD01CF010895EE0FFF1F55
:1027D0000590F491E02D0994CF93DF938230910519
:1027E00010F482E090E0E091CE02F091CF0220E080
:1027F00030E0C0E0D0E0309711F1408151814817BE
:102800005907C0F04817590761F4828193812097D6
:1028100019F09B838A832BC09093CF028093CE02C2
:1028200026C02115310519F04217530718F49A01F3
:10283000BE01DF01EF010280F381E02DDCCF211525
:10284000310509F1281B390B2430310590F412961B
:102850008D919C9113976115710521F0FB01938374
:10286000828304C09093CF028093CE02FD01329602
:1028700044C0FD01E20FF31F81939193225031096F
:102880002D933C933AC02091CC023091CD02232B62
:1028900041F420910801309109013093CD02209339
:1028A000CC0220910601309107012115310541F438
:1028B0002DB73EB740910A0150910B01241B350BF7
:1028C000E091CC02F091CD02E217F307A0F42E1BA9
:1028D0003F0B2817390778F0AC014E5F5F4F241784
:1028E000350748F04E0F5F1F5093CD024093CC0246
:1028F0008193919302C0E0E0F0E0CF01DF91CF91AE
:1029000008950F931F93CF93DF93009709F48CC022
:10291000FC013297138212820091CE021091CF02F5
:102920000115110581F420813181820F931F2091BF
:10293000CC023091CD022817390779F5F093CD02FA
:10294000E093CC0271C0D80140E050E0AE17BF0761
:1029500050F412962D913C911397AD01211531053C
:1029600009F1D901F3CF9D01DA013383228360811C
:102970007181860F971F8217930769F4EC012881F4
:102980003981260F371F2E5F3F4F318320838A8185
:102990009B8193838283452B29F4F093CF02E093AC
:1029A000CE0242C01396FC93EE931297ED0149912B
:1029B00059919E01240F351FE217F30771F48081AE
:1029C0009181840F951F029611969C938E9382811C
:1029D000938113969C938E931297E0E0F0E0D801D8
:1029E00012968D919C911397009719F0F8018C0124
:1029F000F6CF8D919C9198012E5F3F4F820F931FD0
:102A00002091CC023091CD022817390769F4309714
:102A100029F41092CF021092CE0202C013821282C9
:102A20001093CD020093CC02DF91CF911F910F91B3
:102A30000895A0E0B0E0EFE1F5E10C947912EC012B
:102A4000009721F4CB010E94EC13B8C0FC01E60F03
:102A5000F71F9C0122503109E217F30708F4ACC0BC
:102A6000D9010D911C91119706171707B0F0053089
:102A7000110508F49FC0C80104978617970708F44A
:102A800099C002501109061B170B019311936D9306
:102A90007C93CF010E9481148DC05B01A01AB10A02
:102AA0004C01800E911EA091CE02B091CF0240E069
:102AB00050E0E12CF12C109709F44AC0A815B90593
:102AC000D1F56D907C901197630182E0C80ED11C06
:102AD000CA14DB0480F1A3014A195B096A0182E090
:102AE000C80ED11C1296BC9012971396AC91B5E00B
:102AF000CB16D10440F0B282A38351834083D90125
:102B00006D937C930AC00E5F1F4FC301800F911F0E
:102B1000F90191838083EB2DFA2FE114F10431F058
:102B2000D7011396FC93EE93129744C0F093CF0213
:102B3000E093CE023FC08D919C91119748175907A1
:102B400008F4AC017D0112960D90BC91A02DB3CF7D
:102B50008091CC029091CD0288159905E1F4461739
:102B60005707C8F48091060190910701009741F43E
:102B70008DB79EB740910A0150910B01841B950BB4
:102B8000E817F907C8F4F093CD02E093CC02F901FD
:102B9000718360830FC0CB010E94EC137C0100970E
:102BA00059F0A801BE010E94E815CE010E948114CF
:102BB000C70104C0CE0102C080E090E0CDB7DEB70F
:102BC000EEE00C94951281E090E0F8940C94F815E6
:102BD000FB01DC0102C001900D9241505040D8F73A
:102BE0000895FB01DC0101900D920020E1F70895AA
:102BF00010E0CFEDD0E004C0FE010E94E613219664
:0A2C0000C03ED107C9F7F894FFCFDA
:102C0A00FFFFFFFF1E000000D0028000000000004E
:102C1A00AA0117014201F101730151016501000086
:102C2A0000008C0417011E021D02E0930400567571
:102C3A00656C7461733A002D2000202B0050756C6E
:102C4A0073612027537461727427004D6963726F30
:102C5A00456C656374726F6E69636100522E426CD3
:102C6A00616E636F005452455321002020202020BA
:102C7A00444F5321210020202020202020202020E2
:102C8A00554E4F212121002020204144454C414EE0
:102C9A0054452121210047616E6120656C20636FD4
:102CAA00636865004D656A6F723A200030303020E3
:102CBA002020302E30300073006E616E00696E661F
:062CCA00006F76660000B9
:00000001FF
